:020000040800F2
:10000000A8210020C901000889260008D124000881
:10001000852600080304000845560008000000007B
:10002000000000000000000000000000A92A0008F5
:10003000ED040008000000007F2A0008AB2A000839
:10004000E3010008E3010008E3010008E301000800
:10005000E3010008E3010008E3010008E3010008F0
:10006000E3010008E3010008E3010008E3010008E0
:10007000E3010008E3010008E3010008E3010008D0
:10008000E3010008E3010008E3010008E3010008C0
:1000900035550008E3010008E3010008E30100080A
:1000A000E3010008E3010008E3010008E3010008A0
:1000B000E3010008E3010008E3010008E301000890
:1000C000E3010008E3010008E3010008E301000880
:1000D000E3010008E3010008E52D0008E301000842
:1000E000E3010008E3010008E301000800F002F862
:1000F00000F05AF80AA090E8000C82448344AAF168
:100100000107DA4501D100F04FF8AFF2090EBAE865
:100110000F0013F0010F18BFFB1A43F0010318473B
:1001200090560000B05600000A444FF0000C10F842
:10013000013B13F0070408BF10F8014B1D1108BF65
:1001400010F8015B641E05D010F8016B641E01F805
:10015000016BF9D113F0080F1EBF10F8014BAD1C55
:100160000C1B09D16D1E58BF01F801CBFAD505E073
:1001700014F8016B01F8016B6D1EF9D59142D6D3CD
:10018000704700000023002400250026103A28BFF5
:1001900078C1FBD8520728BF30C148BF0B607047F9
:1001A0001FB51FBD10B510BD00F0F1F81146FFF7E7
:1001B000F7FF05F065FA00F00FF903B4FFF7F2FF5F
:1001C00003BC00F017F900000948804709480047C0
:1001D000FEE7FEE7FEE7FEE7FEE7FEE7FEE7FEE7F7
:1001E000FEE7FEE704480549054A064B7047000054
:1001F000372B0008ED000008A81B0020A8210020D4
:10020000A81D0020A81D0020032A40F2308010F015
:10021000030C00F0158011F8013BBCF1020F6244A1
:1002200098BF11F801CB00F8013B38BF11F8013B32
:10023000A2F1040298BF00F801CB38BF00F8013BDF
:1002400011F0030300F02580083AC0F0088051F84F
:10025000043B083A51F804CBA0E80810F5E7121D5A
:100260005CBF51F8043B40F8043BAFF30080D20779
:1002700024BF11F8013B11F801CB48BF11F8012B45
:1002800024BF00F8013B00F801CB48BF00F8012B68
:10029000704710B5203AC0F00B80B1E81850203AF2
:1002A000A0E81850B1E81850A0E81850BFF4F5AF16
:1002B0005FEA027C24BFB1E81850A0E8185044BFA0
:1002C00018C918C0BDE810405FEA827C24BF51F80D
:1002D000043B40F8043B08BF7047D20728BF31F801
:1002E000023B48BF11F8012B28BF20F8023B48BF52
:1002F00000F8012B70474FF000020429C0F0128073
:1003000010F0030C00F01B80CCF1040CBCF1020FC8
:1003100018BF00F8012BA8BF20F8022BA1EB0C019D
:1003200000F00DB85FEAC17C24BF00F8012B00F893
:10033000012B48BF00F8012B70474FF0000200B5B9
:10034000134694469646203922BFA0E80C50A0E8F8
:100350000C50B1F12001BFF4F7AF090728BFA0E8A6
:100360000C5048BF0CC05DF804EB890028BF40F872
:10037000042B08BF704748BF20F8022B11F0804FB4
:1003800018BF00F8012B70477047704770477546DB
:1003900000F02CF8AE4605006946534620F00700F1
:1003A000854618B020B5FFF71DFFBDE820404FF08F
:1003B00000064FF000074FF000084FF0000B21F04F
:1003C0000701AC46ACE8C009ACE8C009ACE8C0091C
:1003D000ACE8C0098D46704710B50446AFF3008005
:1003E0002046BDE81040FFF7E8BE00000048704717
:1003F000441B002001491820ABBEFEE72600020086
:10040000704700BFFEE70346042B15D007DC7BB125
:10041000012B0ED0022B0DD0032B12D10BE0202B81
:100420000BD0212B0AD0222B09D0232B09D107E096
:1004300008E007E006E005E004E003E002E001E098
:1004400000E000BF00BF00207047002070470000A0
:1004500010B500220449054802F00BFE0449034888
:1004600002F000FE002010BD50120020A409002060
:10047000680E002070B505460C4629460A4802F071
:10048000F1FD094802F0CAFD0849094B1B78C8185C
:1004900029462268FFF7B8FE207805490978084404
:1004A00003490870002070BDA409002078050020D1
:1004B000040000202DE9F04104460D4600260A48BC
:1004C000D0F8B872D7F8140210B10120BDE8F0815D
:1004D0002A462146044802F0CCFD034802F04DFEB6
:1004E00006463046F2E70000A4090020704772B6C5
:1004F00000BFFEE770B50A480468001D0568001DCE
:100500000668344454B108220649204601F0E2FF4F
:10051000042204491031284601F0DCFF70BD0000C0
:10052000E8F7FF1F520000200146002291F8210049
:10053000022808D00420886300BF002081F8200032
:1005400000BF012070470868006820F00E000B68AB
:1005500018600868006820F001000B68186091F8C6
:10056000403001209840CB6B5860012081F8210079
:1005700000BF002081F8200000BF1046E2E7000025
:1005800070B50446002594F82100022803D0042009
:10059000A063012548E02068006820F00E00216873
:1005A00008602068006820F00100216808601F4989
:1005B0002068884201D1012026E01C4914312068BE
:1005C000884201D110201FE0184928312068884254
:1005D00001D1801518E015493C312068884201D1CD
:1005E000801411E0114950312068884202D14FF443
:1005F000803009E00D4964312068884202D14FF40F
:10060000801001E04FF080700849083948600120EF
:1006100084F8210000BF002084F8200000BF606B38
:1006200010B12046616B8847284670BD0800024023
:100630002DE9F8470346002294466EE14FF0010889
:1006400008FA02F4D1F8008008EA0400A0427DD143
:10065000DFF8DCA2D1F80480A8EB0A09D0453AD033
:1006600014DCB8F1030F50D009DCB8F1000F31D021
:10067000B8F1010F1CD0B8F1020F49D120E0B8F158
:10068000110F18D0B8F1120F42D11EE0B9F5881F32
:1006900025D006DCB9F5803F20D0B9F5801F37D1D1
:1006A0001AE0B9F5001F18D0B9F5041F30D117E0D2
:1006B000D1F80CC02DE0D1F80C8008F1040C28E032
:1006C000D1F80C8008F1080C23E0D1F80C8008F177
:1006D0000C0C1EE000BF00BF00BF00BF00BF00BF8A
:1006E000D1F80880B8F1000F02D14FF0040C0BE0F4
:1006F000D1F80880B8F1010F03D14FF0080C1C614C
:1007000002E04FF0080C5C6103E04FF0000C00E0E9
:1007100000BF00BFFF2801D8984601E003F104089C
:100720004646FF2802D84FEA820803E0A2F10808F3
:100730004FEA88084746D6F800804FF00F0909FABB
:1007400007F928EA09080CFA07F900E088E048EA06
:100750000908C6F80080D1F8048008F08058B8F184
:10076000805F7DD100BFDFF8CC81D8F8188048F0D9
:100770000108DFF8C091C9F81880C846D8F8188079
:1007800008F00108CDF8008000BF00BF4FEAB9387B
:100790004FEA920958F829504FEA82784FEA1879BF
:1007A0004FF00F0808FA09F825EA0805DFF88881F4
:1007B000434502D14FF0000816E0DFF88081434541
:1007C00002D14FF001080FE0DFF87481434502D1F8
:1007D0004FF0020808E0DFF86C81434502D14FF08A
:1007E000030801E04FF004084FEA82794FEA1979D3
:1007F00008FA09F848EA0505DFF84C814FEA920942
:1008000048F82950D1F8048008F48038B8F5803FC2
:100810000AD1DFF83881D8F8008048EA0008DFF80C
:100820002C91C9F8008009E0DFF82081D8F8008019
:1008300028EA0008DFF81491C9F80080D1F8048094
:1008400008F40038B8F5003F10D1DFF8008108F156
:100850000408D8F8008048EA0008DFF8F09000E0CB
:100860005AE009F10409C9F800800DE0DFF8DC80E6
:1008700008F10408D8F8008028EA0008DFF8CC90D6
:1008800009F10409C9F80080D1F8048008F480183F
:10089000B8F5801F0ED1DFF8B48008F10808D8F849
:1008A000008048EA0008DFF8A49009F10809C9F8B7
:1008B00000800DE0DFF8948008F10808D8F8008087
:1008C00028EA0008DFF8849009F10809C9F80080D7
:1008D000D1F8048008F40018B8F5001F0ED1DFF835
:1008E0006C8008F10C08D8F8008048EA0008DFF8AE
:1008F0005C9009F10C09C9F800800DE0DFF84C802C
:1009000008F10C08D8F8008028EA0008DFF83C90CD
:1009100009F10C09C9F80080521CD1F8008028FAAE
:1009200002F8B8F1000F7FF489AEBDE8F887000047
:10093000000011100010024000080140000C0140AE
:100940000010014000140140080001400004014073
:1009500010B5C26821EA020302EA010443EA044333
:10096000036110BD0AB1016101E00B04036170472E
:1009700001480068704700000C0000200348006830
:100980000349097808440149086070470C000020B9
:100990001400002010B50848006840F01000064917
:1009A0000860032000F0A8F8002000F007F800F02D
:1009B0002BF8002010BD00000020024070B5044656
:1009C0000E4800784FF47A71B1FBF0F00C490968D9
:1009D000B1FBF0F5284601F0B3FB08B1012070BD72
:1009E000102C07D200222146501E00F047F805487F
:1009F000046001E00120F2E70020F0E7140000208D
:100A0000180000201000002008B500BF11488069C0
:100A100040F001000F4988610846806900F001003C
:100A2000009000BF00BF00BF0846C06940F0805082
:100A3000C8610846C06900F08050009000BF00BF48
:100A400000BF0549486820F0E06040F00070486051
:100A500000BF08BD001002400000014001460846EA
:100A6000002809DB00F01F0301229A4043099B0084
:100A700003F1E023C3F8002100BF70472DE9F05FC8
:100A800080460D461646002704F0DEFD074639462F
:100A90002A46334601F00700C0F1070ABAF1040FF5
:100AA00002D94FF0040A01E0C0F1070AD14600F173
:100AB000040ABAF1070F02D24FF0000A01E0A0F1D8
:100AC000030AD4464FF0010A0AFA09FAAAF1010A08
:100AD0000AEA020A0AFA0CFA4FF0010B0BFA0CFBB5
:100AE000ABF1010B0BEA030B4AEA0B04214640462B
:100AF00004F0B2FDBDE8F09F00BF00F00702064B16
:100B000019684FF6FF031940044B0B4343EA0221D7
:100B1000014B196000BF70470CED00E00000FA05C2
:100B200070B505460C4604F08000802808D104F01A
:100B3000070000EB800605F1280000EBC60105E088
:100B400004EB840605F5B47000EBC6011AB9002069
:100B50000873CB8004E0012008730B81180C4881D6
:100B6000002070BD704770B504460D4605EB850347
:100B700004F1280101EBC3014A692946D4F8E802CF
:100B800002F00AFE70BD70B504460D4605EB850304
:100B900004F5B47101EBC3014A692946D4F8E802AF
:100BA00002F07AFE70BD70B504460E4606F0800075
:100BB00080280AD106F0070000EB800104F128002C
:100BC00000EBC1050120687009E006F0070000EBAA
:100BD000800104F5B47000EBC1050020687006F0D8
:100BE0000700287000BF94F8A802012801D1022054
:100BF00070BD012084F8A80200BF2946206803F0D8
:100C0000D3FC00BF002084F8A80200BF00BFEFE7BC
:100C100070B504460E4606F00F006168884201D99F
:100C2000012070BD06F0800080280AD106F0070080
:100C300000EB800104F1280000EBC1050120687081
:100C400009E006F0070000EB800104F5B47000EB4A
:100C5000C105002068700020A87006F00700287009
:100C600000BF94F8A802012801D10220D9E7012091
:100C700084F8A80200BF2946206803F0F1FD00BFF8
:100C8000002084F8A80200BF00BFCAE72DE9F041A8
:100C900005460C46174607F48040002850D02868C7
:100CA000B0F85010207801EBC000801C296801F5D5
:100CB000806131F81000C0F30906A069B04203D387
:100CC000A069801BA06101E00020A061A069A8B913
:100CD00000BF22785200296831F812104BF68F724B
:100CE00001EA020080F4005040F4004141F080012C
:100CF00023785B002A6822F8131000BF07F0400039
:100D0000A8B100BF00BF22785200296831F8121044
:100D100048F68F7201EA020040F4004141F0C00140
:100D200023785B002A6822F8131000BF00BF002E52
:100D300055D0228961693346286804F033FC4EE0BF
:100D40002868B0F85010207801EBC000801D296899
:100D500001F5806131F81000C0F30906A069B042C6
:100D600003D3A069801BA06101E00020A061A069FD
:100D7000A8B900BF22785200296831F812104BF64A
:100D80008F7201EA020080F4005040F4004141F00B
:100D9000800123785B002A6822F8131000BF07F057
:100DA0004000A8B900BF00BF22785200296831F87E
:100DB000121048F68F7201EA020040F4004141F03F
:100DC000C00123785B002A6822F8131000BF00BF1F
:100DD0002EB1628961693346286804F0E3FB30462E
:100DE000BDE8F0812DE9F04705460C46904608F035
:100DF0004000002871D02868B0F85010207801EB2E
:100E0000C000801C296801F5806131F81000C0F332
:100E10000907A069B84203D9A069C01BA06101E01D
:100E20000020A061A06900287ED100BF6078C8B909
:100E300000BF29682A68B2F85020114422780223A2
:100E400003EBC20201F5806303EB420000BF02889E
:100E500048F2FF331A400280028842F400420280C6
:100E600000BF13E06078012810D100BF28682A680D
:100E7000B2F8502010442278022303EBC20200F59E
:100E8000806303EB420100220A8000BF00BF00BF65
:100E90002968607810BB00BF2B68D5F800C0BCF88B
:100EA00050C0634494F800C04FF0060909EBCC0C25
:100EB00003F5806909EB4C0000BFB0F800C048F2B0
:100EC000FF390CEA090CA0F800C0B0F800C04CF4DF
:100ED000004CA0F800C000BF11E0C0E0607801281D
:100EE0000DD12868B0F8500001442078062303EBA8
:100EF000C00001F5806303EB40020020108000BFBA
:100F000021782846FFF72FFE08F48040002816D0ED
:100F100000BF00BF22785200296831F8121048F64D
:100F20008F7201EA020000E00AE040F4004141F45F
:100F3000814123785B002A6822F8131000BFCAE1C0
:100F400008F48040A8B100BF00BF22785200296891
:100F500031F8121048F68F7201EA020040F40041A5
:100F600041F4814223785B00296821F8132000BFF7
:100F700000BF94F824000128E1D160693844606121
:100F8000E0693844E0612169206A884204D3266917
:100F9000206A801B20620BE0206A20B93E460020B8
:100FA00084F8240004E0002084F82400266A2062EB
:100FB00000BF6078B8BB00BF2A682968B1F850103C
:100FC0000A442178022303EBC10102F5806303EB9D
:100FD0004101084600BF56B9038848F2FF3C03EAC6
:100FE0000C030380038843F40043038019E03E2E82
:100FF0000BD800BF710806F0010303B1491C4FF67E
:10100000FF7303EA812303800BE000BF710906F040
:101010001F0303B9491E4FF4004343EA81230380B1
:1010200000BF00BF13E0FFE7607801280FD100BFC9
:1010300028682A68B2F8502010442278022303EB73
:10104000C20200F5806303EB42010E8000BF00BFC7
:10105000B3B222896169286804F0D3FA3BE12868B9
:10106000B0F85010207801EBC000801D296801F510
:10107000806131F81000C0F30907A069B84203D3BA
:10108000A069C01BA06101E00020A061A069002848
:101090007DD100BF6078C8B900BF29682A68B2F85E
:1010A000502011442278022303EBC20201F5806331
:1010B00003EB420000BF028848F2FF331A4002806F
:1010C000028842F40042028000BF13E060780128E9
:1010D00010D100BF28682A68B2F850201044227846
:1010E000022303EBC20200F5806303EB42010022FE
:1010F0000A8000BF00BF00BF2968607808BB00BF3E
:101100002B68D5F800C0BCF850C0634494F800C008
:101110004FF0060909EBCC0C03F5806909EB4C0094
:1011200000BFB0F800C048F2FF390CEA090CA0F883
:1011300000C0B0F800C04CF4004CA0F800C000BFE4
:1011400010E0607801280DD12868B0F85000014403
:101150002078062303EBC00001F5806303EB400217
:101160000020108000BF21782846FFF7FCFC08F41F
:101170008040002816D100BF00BF227852002968A5
:1011800031F8121048F68F7201EA020000E00AE01E
:1011900040F4004141F4814123785B002A6822F841
:1011A000131000BF97E008F48040A8B900BF00BF4B
:1011B00022785200296831F8121048F68F7201EA3D
:1011C000020040F4004141F4814123785B002A6829
:1011D00022F8131000BF00BF94F8240001287AD130
:1011E000606938446061E0693844E0612169206ADF
:1011F000884204D32669206A801B20620BE0206AA3
:1012000020B93E46002084F8240004E0266A00202D
:10121000206284F8240000BF2A68607890BB00BF79
:10122000D5F800C02968B1F850108C4421784FF0EF
:10123000060909EBC1010CF5806909EB410108467B
:1012400000BF76B9B0F8009048F2FF3A09EA0A09FF
:10125000A0F80090B0F8009049F40049A0F8009080
:1012600020E03E2E0FD800BF710806F00109B9F149
:10127000000F00D0491C4FF6FF7909EA8129A0F838
:1012800000900FE010E000BF710906F01F09B9F1EE
:10129000000F00D1491E4FF4004949EA8129A0F806
:1012A000009000BF00BF0FE0607801280CD12868D3
:1012B000B0F8500002442078062101EBC00002F58E
:1012C000806101EB40031E8000BFB3B26289616997
:1012D000286804F096F900BF22785200296831F896
:1012E000121048F6BF7201EA020080F0100080F090
:1012F000200040F4004141F0800123785B002A681F
:1013000022F8131000BF0020BDE8F087024601F06C
:10131000070000EB800302F5B47000EBC300C06966
:1013200070472DE9F04705460E4690461F464FF0A0
:10133000000906F0800080280AD106F0070000EBC3
:10134000800105F1280000EBC1040120607009E074
:1013500006F0070000EB800105F5B47000EBC10456
:101360000020607006F007002070C4F81080E7705D
:10137000607808B12078E081022F01D1002020712F
:1013800000BF95F8A802012802D10220BDE8F0872D
:10139000012085F8A80200BF2146286802F0DAFE85
:1013A00000BF002085F8A80200BF4846EEE72DE9FF
:1013B000F04105460E461746984606F0070000EB3A
:1013C000800105F5B47000EBC1046761C4F81880B2
:1013D0000020E061607006F00700207006F0070052
:1013E00020B92146286803F0D6FA03E02146286890
:1013F00003F0D1FA0020BDE8F08170B504460D4637
:1014000005F007006168884201D9012070BD05F030
:10141000800080280AD105F0070000EB800104F16C
:10142000280000EBC1060120707007E005EB850184
:1014300004F5B47000EBC106002070700120B0709C
:1014400005F00700307000BF94F8A802012801D110
:101450000220DBE7012084F8A80200BF31462068A3
:1014600003F06BFA05F0070020B904F52C71206831
:1014700003F0F3F900BF002084F8A80200BF00BF0A
:10148000C4E72DE9F04105460E4690461F4606F09A
:10149000070000EB800105F1280000EBC104C4F84F
:1014A0001480A761012084F8240027620020E061F5
:1014B0000120607006F00700207006F0070020B9D8
:1014C0002146286803F067FA03E02146286803F004
:1014D00062FA0020BDE8F0817FB50446206804F080
:1014E0005DF800F40040B0F5004F02D1204601F055
:1014F000CDF8206804F052F800F48060B0F5806FF9
:101500000FD12068B0F844004FF6FF310840216841
:10151000A1F84400204600F09FF90021204600F089
:10152000BBF9206804F03AF800F48040B0F5804F31
:1015300008D12068B0F844004BF6FF7108402168DC
:10154000A1F84400206804F029F800F40050B0F538
:10155000005F08D12068B0F844004DF6FF710840E4
:101560002168A1F84400206804F018F800F48050C5
:10157000B0F5805F1DD12068B0F840004FF6FB71D8
:1015800008402168A1F840002068B0F840004FF6FC
:10159000F77108402168A1F84000204600F06EF97C
:1015A0002068B0F844004EF6FF7108402168A1F8A9
:1015B0004400206803F0F2FF00F40060B0F5006F13
:1015C00055D1002507E06900206830F811002DF89A
:1015D0001500681CC5B2082DF5D32068B0F840008E
:1015E00040F001002168A1F840002068B0F84000F8
:1015F0004FF6FE7108402168A1F8400000BF206846
:10160000B0F8440000F480600028F8D02068B0F8FA
:1016100044004FF6FF3108402168A1F8440000253E
:1016200007E03DF815006A00216821F81200681CE7
:10163000C5B2082DF5D32068B0F8400040F008008E
:101640002168A1F840002068B0F844004FF2FF7113
:1016500008402168A1F844002068B0F8400040F03C
:1016600004002168A1F84000204600F057F92068E6
:1016700003F094FF00F40070B0F5007F0BD12068F8
:10168000B0F844004FF6FF5108402168A1F844002B
:10169000204600F0FAF8206803F080FF00F4807024
:1016A000B0F5807F08D12068B0F844004FF6FF61A4
:1016B00008402168A1F844007FBD30B585B00446DC
:1016C00014B9012005B030BD94F8A90228B9002052
:1016D00084F8A802204600F09DF8032084F8A902AF
:1016E000206803F0B0F8142204F110016846FEF7F8
:1016F000D0FD94E80F0002F053FF20B1022084F8DF
:10170000A9020120DEE70021206803F070FF002518
:1017100031E0012105EB850204F1280000EBC20055
:10172000417005EB850104F1280000F8315005EB0C
:10173000850100EBC100C581002105EB850204F1A4
:10174000280000EBC200C17005EB850204F12800FF
:1017500000EBC200016105EB850204F1280000EBFB
:10176000C200416105EB850204F1280000EBC200D4
:101770008161681CC5B26068A842CAD800252AE009
:10178000002105EB850204F5B47000EBC200417046
:1017900005EB850104F5B47000F83150002105EB2C
:1017A000850200EBC200C17005EB850204F5B47040
:1017B00000EBC200016105EB850204F5B47000EB9B
:1017C000C200416105EB850204F5B47000EBC20074
:1017D0008161681CC5B26068A842D1D8142204F1A6
:1017E00010016846FEF755FD94E80F0003F020F85D
:1017F00020B1022084F8A902012063E7002084F8C8
:101800002400012084F8A902206803F00EF80020CB
:1018100058E7000038B504460D492068884215D1C4
:1018200000BF0C48C06940F400000A49C86108467E
:10183000C06900F40000009000BF00BF0022114604
:101840001420FFF71BF91420FFF708F938BD00003A
:10185000005C00400010024070B504460125A068FD
:10186000022801D0FEF743FE2946D4F8E80202F030
:1018700047F9D4F8E80202F0F9F870BD10B5044653
:10188000D4F8E80202F020F910BD10B50446D4F8EF
:10189000E80202F024F910BD70B504460D4600BF01
:1018A00094F8A802012801D1022070BD012084F81B
:1018B000A80200BF84F824502946206803F09AFE4D
:1018C00000BF002084F8A80200BF00BFEDE710B5FC
:1018D000044604F52C71D4F8E80202F028F910BD92
:1018E00010B5044600BF94F8A802012801D10220D7
:1018F00010BD012084F8A80200BF206803F010FE8C
:1019000001212046FFF72EF9206802F08BFF00BF6F
:10191000002084F8A80200BF00BFE9E710B5044624
:10192000D4F8E80202F05CF9A06928B10348006825
:1019300040F006000149086010BD000010ED00E015
:10194000F8B5044600260025207800F001000028A4
:101950006BD000274348C06900F0805070B900BFC9
:101960004048C06940F080503E49C8610846C0699F
:1019700000F08050009000BF00BF01273A48006887
:1019800000F48070B0B93848006840F4807036497F
:101990000860FEF7EDFF064606E0FEF7E9FF801B54
:1019A000642801D90320F8BD2F48006800F4807036
:1019B0000028F2D02B48006A00F440752DB3A088AF
:1019C00000F44070A84220D02648006A20F44075F8
:1019D000012026490860002008602248056205F0C1
:1019E000010090B1FEF7C4FF064608E0FEF7C0FF15
:1019F000801B41F28831884201D90320D3E719487E
:101A0000006A00F002000028F0D01648006A20F4B6
:101A100040706168084313490862012F04D10846E9
:101A2000C06920F08050C86100BF207800F002003B
:101A3000022807D10B48406820F44040A1680843C1
:101A400008494860207800F01000102807D10548A8
:101A5000406820F48000E1680843024948600020A3
:101A6000A1E7000000100240007000404004424224
:101A700070B504460D460CB9012070BD5A48006887
:101A800000F00700A8420ED25748006820F0070077
:101A90002843554908600846006800F00700A8423E
:101AA00001D00120E9E7207800F0020002281DD1D2
:101AB000207800F00400042805D14C48406840F428
:101AC000E0604A494860207800F00800082805D105
:101AD0004648406840F46050444948604348406884
:101AE00020F0F000A168084340494860207800F0E9
:101AF000010078B36068012806D13C48006800F412
:101B0000003090B90120B8E76068022806D1374854
:101B1000006800F0007040B90120AEE7334800686B
:101B200000F0020008B90120A7E73048406820F023
:101B30000300616808432D494860FEF719FF064617
:101B400009E0FEF715FF801B41F28831884202D977
:101B5000032092E707E02548406800F00C00616828
:101B6000B0EB810FEDD12048006800F00700A842DB
:101B70000ED91D48006820F0070028431A49086064
:101B80000846006800F00700A84201D0012074E771
:101B9000207800F00400042807D11448406820F49D
:101BA000E060E168084311494860207800F00800CF
:101BB000082808D10D48406820F46050216940EAA7
:101BC000C1000A49486000F03FF808494968C1F37C
:101BD0000311074A515CC84006490860064800687E
:101BE000FEF7ECFE002048E7002002400010024013
:101BF00098570008180000201000002001480068D5
:101C0000704700001800002000B5FFF7F7FF0449F7
:101C10004968C1F30221034A515CC84000BD00007D
:101C200000100240A857000800B5FFF7E7FF04497D
:101C30004968C1F3C221034A515CC84000BD00009D
:101C400000100240A8570008F0B585B00FF26C0CE8
:101C50009CE8E01001A8A0E8E0101CA52D68009504
:101C600000210022002300240020194D696801F0A2
:101C70000C05F5B1042D02D0082D19D101E015484D
:101C800019E001ADC1F38346AC5D01F4803555B177
:101C90000F4D6D68C5F340451DF805200D4D65439A
:101CA000B5FBF2F302E00C4D04FB05F3184602E02D
:101CB00000BF084800BF00BF05B0F0BD0203040527
:101CC000060708090A0B0C0D0E0F10100102000088
:101CD0000010024000127A0000093D00F8B50446E9
:101CE0000CB90120F8BD207800F00100002878D060
:101CF000F848406800F00C0004280CD0F548406813
:101D000000F00C00082811D1F248406800F480303F
:101D1000B0F5803F0AD1EF48006800F40030002899
:101D20005FD0606800285CD10120DBE700BF6068FD
:101D3000B0F5803F06D1E748006840F48030E549BF
:101D4000086028E0606858B9E248006820F48030F4
:101D5000E04908600846006820F4802008601AE026
:101D60006068B0F5A02F0BD1DA48006840F48020FD
:101D7000D84908600846006840F4803008600AE0EE
:101D8000D448006820F48030D249086008460068D2
:101D900020F48020086000BF606888B1FEF7E8FD8D
:101DA000054606E0FEF7E4FD401B642801D9032048
:101DB00098E7C848006800F400300028F2D010E02E
:101DC000FEF7D6FD054606E0FEF7D2FD401B64286F
:101DD00001D9032086E7BF48006800F400300028DE
:101DE000F2D1207800F00200022857D1B9484068AB
:101DF00000F00C0050B1B748406800F00C00082813
:101E000018D1B448406800F4803098B9B1480068EF
:101E100000F0020020B12069012801D0012061E713
:101E2000AC48006820F0F800616940EAC100A949A7
:101E3000086033E02069E8B10120A7490860FEF797
:101E400097FD054606E0FEF793FD401B022801D9E9
:101E5000032047E79F48006800F002000028F2D006
:101E60009C48006820F0F800616940EAC100994987
:101E7000086013E0002098490860FEF779FD0546E8
:101E800006E0FEF775FD401B022801D9032029E773
:101E90009048006800F002000028F2D1207800F09D
:101EA000080008282DD1A069B8B101208B4908602D
:101EB000FEF75EFD054606E0FEF75AFD401B0228D0
:101EC00001D903200EE78348406A00F00200002891
:101ED000F2D0012000F0D4FD13E000207F4908601B
:101EE000FEF746FD054606E0FEF742FD401B0228D0
:101EF00001D90320F6E67748406A00F00200002886
:101F0000F2D1207800F00400042873D10027714832
:101F1000C06900F0805070B900BF6E48C06940F0E1
:101F200080506C49C8610846C06900F0805000903C
:101F300000BF00BF01276A48006800F48070B0B994
:101F40006748006840F4807065490860FEF710FD3E
:101F5000054606E0FEF70CFD401B642801D903206E
:101F6000C0E65F48006800F480700028F2D000BF2F
:101F7000E068012806D15748006A40F00100554941
:101F8000086227E0E06858B95248006A20F0010072
:101F9000504908620846006A20F00400086219E00F
:101FA000E06805280BD14B48006A40F0040049491D
:101FB00008620846006A40F0010008620AE04548ED
:101FC000006A20F00100434908620846006A20F0D8
:101FD0000400086200BFE068A0B1FEF7C9FC054636
:101FE00009E0FEF7C5FC401B41F28831884202D966
:101FF000032077E622E03748006A00F0020000285C
:10200000EFD012E0FEF7B4FC054608E0FEF7B0FCA6
:10201000401B41F28831884201D9032062E62D48F5
:10202000006A00F002000028F0D1012F05D12948F4
:10203000C06920F080502749C86100BFE069C8B37B
:102040002448406800F00C00082860D0E0690228AD
:1020500048D1002020490866FEF78AFC054606E0C4
:10206000FEF786FC401B022801D903203AE61948F6
:10207000006800F000700028F2D1206AB0F5803FBF
:1020800007D11448406820F40030A1680843114982
:102090004860D4E9080108430E49496821F47411E5
:1020A00008430C49486001200B490866FEF760FCB4
:1020B000054607E03DE0FEF75BFC401B022801D926
:1020C00003200FE60348006800F000700028F2D0FB
:1020D0002FE0000000100240000042428004424213
:1020E00000700040002014490866FEF741FC0546D8
:1020F00006E0FEF73DFC401B022801D90320F1E574
:102100000E48006800F000700028F2D111E0E0698C
:10211000012800D1E6E50948466806F48031206AC6
:10212000814204D106F47011606A814201D001201D
:10213000D8E50020D6E50000000042420010024031
:1021400070B504462546681EB0F1807F01D301209A
:102150000FE0681E4FF0E02148610F214FF0FF3083
:1021600003F07AFA00204FF0E0218861072008612F
:10217000002070BD704770472DE9F84F0446206875
:1021800005682068C668206847694FF00009CA469C
:1021900005F00F09B9F1000F0AD105F0200038B1A0
:1021A00006F0200020B1204600F0FBFCBDE8F88FCF
:1021B000B9F1000F71D007F0010018B906F4907062
:1021C00000286AD005F0010030B106F4807018B123
:1021D000206C40F00100206405F0040030B107F0ED
:1021E000010018B1206C40F00200206405F00200EC
:1021F00030B107F0010018B1206C40F004002064F9
:1022000005F0080048B106F0200010B907F0010001
:1022100018B1206C40F008002064206C68B305F011
:10222000200028B106F0200010B1204600F0B9FCD3
:1022300020684069C0F3801A206C00F0080010B9D3
:10224000BAF1000F22D0204600F080FC20684069DF
:1022500000F04000B0B12068406920F040002168E3
:102260004861A06B50B15648A16B4863A06BFEF764
:1022700087F910B1A06B416B88470CE02046FFF74F
:102280007AFF08E02046FFF776FF04E02046FFF7DC
:1022900072FF0020206489E7FFE7206B012878D1D6
:1022A00005F01000002874D006F01000002870D04F
:1022B00000BF0020009020680068009020684068FF
:1022C000009000BF00BF2068406900F04000C0B32C
:1022D000A06B006840681FFA80F8B8F1000F2FD09B
:1022E000A08D40452CDDA4F82E80A06B80692028AD
:1022F0001FD02068C06820F480702168C860206802
:10230000406920F00100216848612068406920F0A0
:10231000400021684861202084F83E0000202063AE
:102320002068C06820F010002168C860A06BFEF72C
:10233000FBF8A08DE28D801A81B22046FFF71AFFCC
:1023400034E7FFE7A08DE18D401A1FFA80F8E08D99
:10235000E8B1B8F1000F1AD02068C06820F490707E
:102360002168C8602068406920F001002168486148
:10237000202084F83E00002020632068C06820F000
:1023800010002168C86041462046FFF7F3FE0DE7C4
:10239000FFE705F0800030B106F0800018B120465C
:1023A00000F0F0FC02E705F0400030B106F040001C
:1023B00018B1204600F0E5FBF8E600BFF6E60000A5
:1023C000392B000810B504460CB9012010BDA069D6
:1023D00000B100E000BF94F83D0028B9002084F867
:1023E0003C00204600F028F8242084F83D002068B6
:1023F000C06820F400502168C860204600F044FC0A
:102400002068006920F490402168086120684069D4
:1024100020F02A00216848612068C06840F400501C
:102420002168C86000202064202084F83D0084F8E2
:102430003E000020CAE7000010B586B00446002028
:1024400002900390049005901D492068884235D180
:1024500000BF1C48C06940F400301A49C8610846F2
:10246000C06900F40030019000BF00BF00BF084603
:10247000806940F0040088610846806900F004002B
:10248000019000BF00BF04200290022003900320AF
:10249000059002A90C48FEF7CBF808200290002016
:1024A0000390049002A90848FEF7C2F80022022116
:1024B0002620FEF7E3FA2620FEF7D0FA06B010BD7C
:1024C000004400400010024000080140704770477F
:1024D00000BFFEE730B50B46002100BF16E00A241E
:1024E000B4EB107F05D9302404EB107403F81140CD
:1024F00005E0412404EB10740A3C03F8114000018C
:1025000000254C00641C1D554C1CE1B29142E6DBD9
:1025100030BD000000B585B000200190029003900E
:10252000049000BF3248806940F010003049886153
:102530000846806900F01000009000BF00BF00BF97
:102540000846806940F0200088610846806900F0F4
:102550002000009000BF00BF00BF0846806940F027
:10256000040088610846806900F00400009000BF04
:1025700000BF00BF0846806940F008008861084637
:10258000806900F00800009000BF00BF00224FF4F7
:1025900000511848FEF7E6F900224FF40071164882
:1025A000FEF7E0F94FF40050019001200290002066
:1025B00003900220049001A90E48FEF739F801208B
:1025C0000190002002900120039001A90B48FEF722
:1025D0002FF84FF40070019001200290002003902A
:1025E0000220049001A90448FEF722F805B000BDBE
:1025F000001002400010014000080140000C0140A2
:1026000010B50B480B4908604FF4E13048600021D9
:1026100008488160C16001610C2141610021816134
:10262000C161FFF7CFFE08B1FDF761FF10BD0000EB
:10263000004400406009002010B500220D490E48FA
:1026400001F06BF808B1FDF752FF0C490A4801F0A0
:10265000FDFA08B1FDF74BFF0949074800F0FBFC04
:1026600008B1FDF744FF044801F0BAFB08B1FDF7DB
:102670003EFF10BD1C000020A40900208C0000209B
:102680006C00002000BFFEE700BFFEE72DE9F04729
:102690000546EAE12868B0F844A00AF00F06002ECB
:1026A0007ED10AF01000B0BB00BF2968098848F647
:1026B0000F7201EA020040F400412A68118000BF55
:1026C00005F128042868B0F85010207801EBC0000C
:1026D000801C296801F5806131F81000C0F3090001
:1026E000E061E16960690844606100212846FEF705
:1026F0003AFA95F824000028CBD0A0690028C8D168
:1027000095F8240040F080002968A1F84C000020D2
:1027100085F82400A9E1FFE705F5B4742868B0F84E
:10272000008008F4006030B32868B0F850102078BA
:1027300001EBC000801D296801F5806131F81000AF
:10274000C0F30900E061A18B8BB2E28805F52C7122
:10275000286802F027FF00BF2968098840F68F72B9
:1027600001EA020040F080012A68118000BF28467B
:10277000FFF7ADF879E108F40040002889D000BFE8
:102780002968098840F68F7201EA020040F0800152
:102790002A68118000BF2868B0F85010207800E047
:1027A0006FE001EBC000801D296801F5806131F800
:1027B0001000C0F30900E061E06990B1606980B188
:1027C000B4F81CC01FFA8CF3E2886169286802F033
:1027D000E9FEE16960690844606100212846FEF76E
:1027E000D2F92868008800F40060002892D100BF68
:1027F0002A682968B1F850100A4402F20C410846D0
:1028000000BF236953B9038848F2FF3C03EA0C0375
:102810000380038843F4004303801EE023693E2BBA
:102820000DD800BF23695908237C03F0010303B1CD
:10283000491C4FF6FF7303EA812303800DE000BFBC
:1028400023695909237C03F01F0303B9491E4FF480
:10285000004343EA8123038000BF00BF00BF00BFE5
:10286000296809884BF68F7201EA020080F48050D3
:1028700080F4005040F4004141F080012A6811804A
:10288000F3E07100286830F8118008F40040002857
:102890007ED000BF7200296831F8121040F68F72A6
:1028A00001EA020040F0800173002A6822F8131048
:1028B00000BF06EB860105F5B47000EBC104207B78
:1028C000B0B92868B0F85010207801EBC000801D26
:1028D000296801F5806131F81000C0F30907002F65
:1028E0005BD0E28861693B46286802F05BFE54E0F9
:1028F000E078022806D1424621462846FEF7C6F96E
:1029000007464AE000BF00BF22785200296831F82C
:10291000121048F68F7201EA020040F4004141F0C3
:10292000C00123785B002A6822F8131000BF00BFA3
:1029300021784900286830F8110000F48040A8B1DF
:102940002868B0F85010207801EBC000801C29687E
:1029500001F5806131F81000C0F30907EFB1228959
:1029600061693B46286802F01DFE16E02868B0F851
:102970005010207801EBC000801D296801F58061AE
:1029800031F81000C0F309073FB16289616900E0C6
:1029900017E03B46286802F005FEE0693844E06134
:1029A000606938446061A06910B12069B84204D9F7
:1029B00021782846FEF7E7F803E02146286801F071
:1029C000EAFF08F08000B0B306EB860105F12800AD
:1029D00000EBC10400BF7200296831F8121048F6FC
:1029E0000F7201EA020040F4004173002A6822F8E5
:1029F000131000BFE078032807D0E07828B1E07812
:102A000002282DD108F4807050BB2868B0F850100F
:102A1000207801EBC000801C296801F5806131F845
:102A20001000C0F30909A069484505D9A069A0EBC9
:102A30000900A06102E018E00020A061A06920B9AF
:102A400021782846FEF78FF80FE0606948446061FE
:102A5000E0694844E0612146286801F09CFF04E0F9
:102A6000424621462846FEF7BDF92868B0F84400E2
:102A700000F4004000287FF40DAEBDE8F0877047F9
:102A800008B508490968C9084FF47A72B1FBF2F138
:102A90004143009100BF00BF00994A1E00920029E7
:102AA000F9D108BD18000020704710B5FDF766FF8A
:102AB00010BD00B593B0282109A8FDF73EFC1421F4
:102AC00004A8FDF73AFC00200090019002900390CA
:102AD0000120099000040A9000200B9001200D9025
:102AE00002201090C10311914FF4E011129109A836
:102AF000FFF7F4F808B1FDF7FAFC0F20049002206C
:102B00000590002006904FF4806007900020089008
:102B1000022104A8FEF7ACFF08B1FDF7E8FC102085
:102B20000090002003906846FEF70AFF08B1FDF709
:102B3000DEFC13B000BD704770B505466C6A00201E
:102B4000E085E0842046FFF716FB70BD0168C96888
:102B500021F490710268D1600168496921F0010196
:102B600002685161016B012905D10168C96821F032
:102B700010010268D160202180F83E10002101631D
:102B8000704710B504462068C06820F040002168F6
:102B9000C860202084F83D002046FFF798FC002004
:102BA00010BDF8B5044694F83E00222869D1A0680B
:102BB000B0F5805F0CD1206950B90025A66A206865
:102BC0004068C0F308003080A06A801CA06215E055
:102BD000A56A0026A068B0F5805F03D0A06828B978
:102BE000206918B920684068287004E020684068AF
:102BF00000F07F002870A06A401CA062E08D401E9B
:102C000080B2E085A8BB2068C06820F02000216861
:102C1000C8602068C06820F480702168C86020689F
:102C2000406920F0010021684861202084F83E00BE
:102C3000206B01281ED1002020632068C06820F08E
:102C400010002168C8602068006800F0100010289B
:102C50000AD100BF00200090206800680090206822
:102C60004068009000BF00BFA18D2046FFF782FAA8
:102C700003E004E02046FFF729FC0020F8BD002017
:102C8000FCE70220FAE7000070B5044621680969F4
:102C900021F44051E2681143226811612269A16860
:102CA0001143626941EA02052168C96841F20C6278
:102CB000914329432268D1602168496921F4407118
:102CC000A2691143226851612D4A2168914202D1C3
:102CD000FEF7AAFF01E0FEF797FF00EBC00101EB52
:102CE000001162689200B1FBF2F100EBC00202EB4E
:102CF000001263689B00B2FBF3F26423B2FBF3F2B1
:102D000002EBC20303EB0212A1EB8201322202EBBF
:102D100001116422B1FBF2F101F0F00100EBC002FD
:102D200002EB001263689B00B2FBF3F26423B2FB78
:102D3000F3F201EB021200EBC00101EB001163683A
:102D40009B00B1FBF3F100EBC00303EB00136668DB
:102D5000B600B3FBF6F36426B3FBF6F303EBC3064E
:102D600006EB0313A1EB8301322303EB0111642370
:102D7000B1FBF3F101F00F0111442268916070BDC5
:102D800000380140014691F83D00212828D188688B
:102D9000B0F5805F0BD1086948B90A6A1088C0F3A2
:102DA00008000B685860086A801C086205E00B6A1E
:102DB000581C086218780B685860C88C401E80B296
:102DC000C88458B90868C06820F080000B68D860D3
:102DD0000868C06840F040000B68D8600020704769
:102DE0000220FCE710B50248FFF7C6F910BD00004D
:102DF000600900202DE9F04104460D46D4F8B86280
:102E0000D4F8C072D4F8B80278B305EB850104F1A8
:102E1000140000EB8100806808B305EB850104F124
:102E2000140000EB810005EB8502816807F12800A2
:102E300000EBC2000069B1FBF0F200FB121070B9A8
:102E4000002105EB850204F1140000EB8200816093
:102E500000231A462946204600F0CCFE02E000205E
:102E6000C6F814020020BDE8F081FFE70220FAE76F
:102E700070B504460E46D4F8B8523146204600F0EC
:102E80005EFDC5F80C02D4F8B80248B1D5F80402CA
:102E9000D4F8BC12CA6805F503719047002070BDD4
:102EA0000220FCE770B504460E460025812120462D
:102EB00000F05FFC0021E1620121204600F059FC96
:102EC0000021C4F86C118221204600F052FC002140
:102ED0002164D4F8B80250B1D4F8BC1248688047D5
:102EE000D4F8B80201F02FF90020C4F8B80228463F
:102EF00070BD70B50546D5F8B842D5F8BC0278B1BA
:102F000094F80002FF280BD094F8012294F80002F4
:102F1000D5F8BC128B6821469847FF2084F8000240
:102F2000002070BD01460A2008800148704700005B
:102F300080000020014643200880014870470000BF
:102F40000801002001464320088001487047000026
:102F5000C40000200146432008800148704700005B
:102F60004C0100202DE9F04104460F460026207C4C
:102F700088B94FF4007302228121204600F046FDFB
:102F80000121E1624B020222204600F03FFD0121B7
:102F9000C4F86C110FE0402302228121204600F08A
:102FA00035FD0121E16240230222204600F02EFD82
:102FB0000121C4F86C11082303228221204600F06D
:102FC00025FD012121644FF4077001F0BDF8C4F81C
:102FD000B802D4F8B80208B901261CE0D4F8B852F7
:102FE000D4F8BC12086880470020C5F81402C5F860
:102FF0001802207C40B94FF4007301212046D5F817
:10300000042200F01BFD06E0402301212046D5F8F4
:10301000042200F013FD3046BDE8F08170B504468F
:10302000D4F8B852D4F8B80298B1207C40B94FF423
:10303000007301212046D5F8042200F0FFFC06E0D1
:10304000402301212046D5F8042200F0F7FC00209F
:1030500070BD0220FCE70246022011B1C2F8BC128A
:10306000002070470246D2F8B832C3F8041200209C
:10307000704710B50346D3F8B842C4F80812C4F834
:103080001022002010BD2DE9FC4105460C46D5F864
:10309000B8620020019000900027207800F06000C6
:1030A00040B320285FD1E088E0B1207800F08000B4
:1030B00060B1E2886078D5F8BC128B6831469847D9
:1030C000E2883146284600F0E6F812E0607886F89B
:1030D0000002A07986F80102E2883146284600F015
:1030E000B9F806E06078D5F8BC1200228B6821465A
:1030F00098473EE0607820B10A2812D00B282AD1E8
:103100001FE095F89C02032805D102226946284653
:1031100000F0C1F804E02146284600F08FF80227AD
:103120001FE095F89C02032805D1012201A9284639
:1031300000F0B1F804E02146284600F07FF80227AD
:103140000FE095F89C02032804D02146284600F0A1
:1031500075F8022705E02146284600F06FF802279F
:1031600000BF00BF05E02146284600F067F80227AF
:1031700000BF00BF3846BDE8FC8170B50546D5F8F4
:10318000B842D5F8B802A8B1D4F8140280B9012029
:10319000C4F81402D4F810122963B4F8100283B2F0
:1031A00081212846D4F8082200F024FD002070BDBB
:1031B0000120FCE70220FAE770B504460D46D4F87A
:1031C000B4022946426820469047002070BD70B581
:1031D00004460D4694F89C02012804D0022803D02E
:1031E00003280CD101E000BF00BF6888012805D189
:1031F0000020C4F8A402204600F05EF804E029464E
:10320000204600F01BF800BF00BF70BD70B5064639
:103210000C4615462B4622460021304600F00EFC97
:10322000002070BD70B506460C4615462B4622465A
:103230000021304600F0DEFC002070BD70B5044671
:103240000D468021204600F0A9FC0021204600F018
:10325000A5FC70BD70B504460E4615460320C4F8A3
:1032600094024FF4AE700551001D05512B463246B5
:103270000021204600F0E2FB002070BD10B504469E
:103280000520C4F8940200231A461946204600F08F
:10329000D5FB002010BD70B504460E461546022031
:1032A000C4F89402E56125622B463246002120468F
:1032B00000F0A0FC002070BD10B504460420C4F846
:1032C000940200231A461946204600F093FC002081
:1032D00010BD000070B505460C462DB922460649C2
:1032E00006A000F0DBF904E02246034903A000F049
:1032F000D5F9014870BD0000680C0020434443200C
:10330000436F6E666967000002461220088001481C
:10331000704700003800002070B505460C462DB9F6
:103320002246064906A000F0B9F904E02246034906
:1033300003A000F0B3F9014870BD0000680C002044
:1033400043444320496E7465726661636500000002
:103350000246042008800148704700004C0000200D
:1033600070B505460C462246024903A000F096F9C6
:10337000004870BD680C002053544D6963726F653E
:103380006C656374726F6E696373000070B5054697
:103390000C462DB92246064906A000F07FF904E04C
:1033A0002246034903A000F079F9014870BD0000EE
:1033B000680C002053544D33322056697274756185
:1033C0006C20436F6D506F727400000070B505463D
:1033D0000C461A202080FDF78DF8014870BD0000D2
:1033E0005000002070B504460D46E888012804D03E
:1033F00029462046FFF722FF1EE094F89C02012890
:1034000004D0022803D0032810D109E000BF002017
:10341000A060012204F108012046FFF73CFF0AE00A
:103420000122211D2046FFF736FF04E029462046F1
:10343000FFF704FF00BF00BF70BDF8B504460E469D
:10344000002000900027002570880012082875D2FF
:10345000DFE800F0C7040C20C7C7A5B5207CD4F86E
:10346000B0120A68694690470746C1E0207C40B91F
:10347000D4F8B402816A684688470746022078700B
:1034800007E0D4F8B402C16A6846884707460220BC
:103490007870ADE0B078062878D2DFE800F0031647
:1034A000293C5063D4F8B002406838B1207CD4F88D
:1034B000B0124A6869469047074605E03146204603
:1034C000FFF7BCFE681CC5B267E0D4F8B0028068A4
:1034D00038B1207CD4F8B0128A6869469047074614
:1034E00005E031462046FFF7A9FE681CC5B254E04E
:1034F000D4F8B002C06838B1207CD4F8B012CA68E1
:1035000069469047074605E031462046FFF796FE9C
:10351000681CC5B241E0D4F8B002006938B1207C23
:10352000D4F8B0120A6969469047074605E031466B
:103530002046FFF783FE681CC5B22EE051E0D4F8A8
:10354000B002406938B1207CD4F8B0124A696946AB
:103550009047074605E031462046FFF76FFE681C9E
:10356000C5B21AE0D4F8B002806940B1207CD4F82A
:10357000B0128A6969469047074606E006E0314680
:103580002046FFF75BFE681CC5B206E031462046C8
:10359000FFF754FE681CC5B200BF00BF28E0207CC6
:1035A00030B9D4F8B402416B68468847074605E055
:1035B00031462046FFF742FE681CC5B218E0207C69
:1035C00040B9D4F8B402016B684688470746072023
:1035D000787005E031462046FFF730FE681CC5B222
:1035E00006E031462046FFF729FE681CC5B200BF41
:1035F00000BF05B1F8BDBDF8000088B1F08878B112
:10360000F088BDF80010884202DDBDF8000000E03F
:10361000F0880090BDF8002039462046FFF73BFEB9
:10362000F08810B92046FFF747FE00BFE2E70146E9
:10363000002002E0421CD0B2491C0A78002AF9D1CD
:10364000704770B504460D4694F89C02012804D0DA
:10365000022803D003281AD101E000BF00BFE88888
:10366000022804D029462046FFF7E8FD14E0012097
:10367000E060D4F8A40218B1E06840F00200E06015
:10368000022204F10C012046FFF705FE04E0294662
:103690002046FFF7D3FD00BF00BF70BD2DE9F0410C
:1036A00004460D4617460026FCB12046FFF7BFFF33
:1036B000022101EB400038803A783046711CCEB2CE
:1036C0002A5403223046711CCEB22A540AE014F860
:1036D000012B3046711CCEB22A5400223046711C98
:1036E000CEB22A5420780028F1D1BDE8F0810146FD
:1036F000002031B1012906D0022906D0032908D1C2
:1037000005E0002007E0022005E0012003E00220A0
:1037100001E0022000BF00BF704770B504460D46AF
:1037200016460CB9022070BDD4F8B40210B10020C6
:10373000C4F8B4020DB1C4F8B052012084F89C0260
:103740002670204600F004F90020ECE72DE9F04156
:1037500004460D46002600272946D4F8C002FDF78E
:1037600057FA06463046FFF7C2FF07463846BDE81F
:10377000F0812DE9F04104460D4600260027294638
:10378000D4F8C002FDF70FFA06463046FFF7AFFF48
:1037900007463846BDE8F0812DE9F04104460E4663
:1037A0001746002E64D104F11405D4F894020228BF
:1037B00048D1D5E90301884210D9D5E90301401A5F
:1037C000E860A88982B239462046FFF72BFD002326
:1037D0001A461946204600F031F93EE02969A868EA
:1037E000B0FBF1F201FB1200B8B92969A868884260
:1037F00013D3A868D4F8981288420ED2002211463A
:103800002046FFF70FFD0020C4F8980200231A4657
:103810001946204600F012F91FE0D4F8B402C0683F
:1038200040B194F89C02032804D1D4F8B402C168D2
:10383000204688478021204600F0B0F92046FFF757
:103840001DFD0AE0D4F89402042802D0D4F89402B2
:1038500018B98021204600F0A1F994F8A0020128AF
:1038600018D1204600F0FAF9002084F8A00211E0F7
:10387000D4F8B402406950B194F89C02032806D1F0
:10388000D4F8B402314642692046904702E0022053
:10389000BDE8F0810020FBE72DE9F04104460E462B
:1038A0001746BEBB04F5AA75D4F89402032825D1A7
:1038B000D5E90301884210D9D5E90301401AE8602F
:1038C000D5E90301884201D2E86800E0286982B2A4
:1038D00039462046FFF79AFC2FE0D4F8B40200697D
:1038E00040B194F89C02032804D1D4F8B4020169D1
:1038F000204688472046FFF7DFFC1EE0D4F89402FC
:1039000005281AD10020C4F894020021204600F0B6
:1039100045F912E0FFE7D4F8B402806950B194F899
:103920009C02032806D1D4F8B402314682692046AD
:10393000904702E00220BDE8F0810020FBE770B56F
:1039400004460D462946D4F8C002FDF7DFFC70BDE1
:1039500010B504461D48C0F8E842C4F8C0021C482F
:103960001A49086008204860022118488160002137
:103970008161C1610162FDF7A0FE08B1FCF7B7FDEE
:1039800004F530741823002211462068FDF7C8F8AA
:103990005823002280212068FDF7C2F8C0230022AE
:1039A00081212068FDF7BCF84FF4887300220121C3
:1039B0002068FDF7B5F82068A4F530744FF48073E3
:1039C00000228221FDF7ACF8002010BD381600203F
:1039D000005C004010B50246D2F8C03201F0800011
:1039E000802809D101F07F0000EB800403F128005A
:1039F00000EBC400807810BD01F07F0000EB800474
:103A000003F5B47000EBC4008078F4E72DE9F047CB
:103A100004460F4615461E464FF00008C1462B4689
:103A200032463946D4F8C002FDF77BFC804640465A
:103A3000FFF75DFE81464846BDE8F0872DE9F04777
:103A400004460D4616461F464FF00008C1463B4649
:103A500032462946D4F8C002FDF7A9FC804640460C
:103A6000FFF745FE81464846BDE8F08710B504469D
:103A70004023002211462046FFF7C8FF01214FF4E2
:103A8000AC70015140214FF4B2700151402300222B
:103A900080212046FFF7BAFF0121A1614021616228
:103AA000012084F89C020020C4F894026060C4F8ED
:103AB000A402D4F8B80228B12179D4F8B40242683B
:103AC00020469047002010BD014691F89C02042832
:103AD00003D191F89D0281F89C020020704710B537
:103AE000044694F89C02032808D1D4F8B402C069B3
:103AF00020B1D4F8B402C16920468847002010BD27
:103B000002461174002070472DE9F04104460D462D
:103B1000002600272946D4F8C002FDF7BDFE064660
:103B20003046FFF7E4FD07463846BDE8F08170B542
:103B300004460D46294604F52A7000F073F801206A
:103B4000C4F8940240F2AE20005BC4F8980294F8E6
:103B5000A80200F01F0020B1012808D0022812D1CD
:103B60000BE004F52A71204600F041F913E004F55A
:103B70002A71204600F0A8FA0DE004F52A712046CB
:103B800000F086F907E094F8A80200F080012046D2
:103B900000F004F800BF00BF002070BD2DE9F04127
:103BA00004460D46002600272946D4F8C002FDF73A
:103BB00024FC06463046FFF79AFD07463846BDE826
:103BC000F08170B5044600250026D4F8C002FDF748
:103BD00087FE05462846FFF78AFD0646304670BD3B
:103BE000014691F89C0281F89D02042081F89C0214
:103BF000002070472DE9F04704460D4616461F4643
:103C00004FF00008C1463B4632462946D4F8C00270
:103C1000FDF737FC80464046FFF769FD8146484680
:103C2000BDE8F0870A7802704A7842708B78CA78CB
:103C300003EB022242800B794A7903EB0222828055
:103C40008B79CA7903EB0222C280704702460020BA
:103C500011B1C2F8B41200E0022070470146002002
:103C6000704770B504460D46A88810BBE88800BBB5
:103C7000688880281DD2A87800F07F0694F89C02FE
:103C8000032804D129462046FFF7D8FA15E084F826
:103C90009E6231462046FFF737FF2046FFF70CFBB8
:103CA0001EB1022084F89C0207E0012084F89C02E7
:103CB00003E029462046FFF7C1FA70BD70B50446FF
:103CC0000D460226D4F8B40238B1D4F8B40229461D
:103CD00002682046904700B90026304670BD0000BB
:103CE00070B504460D46A878364908700846007835
:103CF000012804DD29462046FFF7A0FA60E094F889
:103D00009C02022802D003284FD11CE02D480078E5
:103D1000A8B12C4800786060032084F89C022948F0
:103D200001782046FFF7CAFF022804D12946204621
:103D3000FFF784FA70BD2046FFF7BEFA02E0204686
:103D4000FFF7BAFA3BE01F48007870B9022084F808
:103D50009C021C48007860601A4801782046FFF7F2
:103D60002BFA2046FFF7A8FA1EE01649097860688A
:103D7000884216D021792046FFF71EFA11480078B4
:103D80006060104801782046FFF798FF022804D1B0
:103D900029462046FFF752FACCE72046FFF78CFA77
:103DA00002E02046FFF788FA09E029462046FFF79F
:103DB00045FA044801782046FFF7FEF900BF00BF2E
:103DC00000BFB7E77C00002070B505460C46608850
:103DD000012804D1C5F8A4022846FFF76DFA70BD8A
:103DE00010B504462046FFF7ECFE002010BD70B56C
:103DF00005460C460026207800F0600060B12028BF
:103E000002D040283CD100E000BFD5F8B4022146E2
:103E100082682846904738E060780A2829D2DFE88F
:103E200000F01923281E280A0528140F21462846C9
:103E3000FFF703FB22E021462846FFF712FF1DE0B3
:103E400021462846FFF74CFF18E021462846FFF799
:103E5000C9FA13E021462846FFF7F3FB0EE021469E
:103E60002846FFF7B1FF09E021462846FFF7AFF9E2
:103E700004E021462846FFF7E1F900BF00BF04E057
:103E800021462846FFF7DAF900BF00BF304670BD73
:103E90002DE9F04105460E464FF0000834793078A0
:103EA00000F0600060B1202802D0402871D100E00D
:103EB00000BFD5F8B402314682682846904700E139
:103EC000307800F06000202809D1D5F8B4023146DE
:103ED00082682846904780464046BDE8F081707869
:103EE00000285ED001282FD0032876D195F89C02B7
:103EF000022802D0032820D110E054B1802C08D031
:103F000021462846FFF74AFE80212846FFF746FE55
:103F100003E031462846FFF791F913E0708840B975
:103F20003CB1802C05D0F08818B921462846FFF70F
:103F300035FE2846FFF7C0F904E031462846FFF772
:103F40007DF900BF00BFB5E095F89C02022802D0C1
:103F500003281FD110E054B1802C08D021462846F8
:103F6000FFF71CFE80212846FFF718FE03E03146CC
:103F70002846FFF763F912E0708848B904F07F0023
:103F800018B121462846FFF7E1FB2846FFF794F9D0
:103F900005E091E031462846FFF750F900BF00BF29
:103FA00088E095F89C02022802D0032876D126E00A
:103FB00034B1802C04D031462846FFF73FF972E037
:103FC00004F08000802809D104F07F0000EB80011C
:103FD00005F1140000EB810008E066E004F07F00CA
:103FE00000EB800105F5AA7000EB81000746002078
:103FF0003860022239462846FFF74DF953E004F0B5
:10400000800080280ED104F00F0000EB800105F144
:10401000140000EB8100406898B931462846FFF74C
:104020000DF940E004F00F0000EB800105F5AA70E7
:1040300000EB8100406820B931462846FFF7FEF8C2
:1040400031E004F08000802808D104F07F0000EB0C
:10405000800105F1140000EB810007E004F07F000F
:1040600000EB800105F5AA7000EB810007460CB15A
:10407000802C02D10020386009E021462846FFF755
:10408000A9FC10B10120386001E000203860022254
:1040900039462846FFF7FFF805E0FFE73146284696
:1040A000FFF7CCF800BF00BF04E031462846FFF719
:1040B000C5F800BF00BF04E031462846FFF7BEF850
:1040C00000BF00BF404608E770B505460C46002615
:1040D000207800F0600030B1202802D040282AD19A
:1040E00000E000BF00BF95F89C02012804D0022820
:1040F00003D0032818D101E000BF00BF20790128B8
:104100000DDCD5F8B4022146826828469047064661
:10411000E08840B93EB92846FFF7CEF803E02146D3
:104120002846FFF78BF804E021462846FFF786F87B
:1041300000BF00BF04E021462846FFF77FF800BF1C
:1041400000BF002070BD7047014601487047000065
:1041500024190020F0B5024600260878400032F805
:10416000100048F68F1400EA0403C87830B1012823
:104170000CD0022805D003280BD104E043F40073CF
:1041800009E000BF07E043F4C06304E043F4806348
:1041900001E0012600BF00BF43F4004040F0800072
:1041A0000C78640022F8140000BF0C78640032F828
:1041B000144048F68F752C400D7844EA050040F411
:1041C000004444F080040D786D0022F8154000BFD3
:1041D000087B00287ED14878002852D000BF1046C6
:1041E000B2F8505028440D7800F5806707EB0514AD
:1041F000CD886D106D00258000BF00BF0C78640075
:1042000032F8140000F040048CB100BF0D786D004E
:1042100032F8155048F68F7705EA070444F4004554
:1042200045F0C0050F787F0022F8175000BF00BF8F
:10423000C878012813D000BF0C78640032F814400D
:1042400048F6BF7504EA050080F0200040F4004401
:1042500044F080040D786D0022F815409EE100BF07
:104260000C78640032F8144048F6BF7504EA050083
:1042700040F4004444F080040D786D0022F81540AD
:104280008CE100BF1046B2F8505028440D78042746
:1042900007EBC50500F5806707EB4504CD886D1079
:1042A0006D00258000BF00BF1546B2F85040254480
:1042B0000C78062707EBC40405F5806707EB440478
:1042C000204600BF0F6967B9078848F2FF3C07EA3C
:1042D0000C0700E057E00780078847F40047078095
:1042E0001EE00F693E2F0DD800BF0F697C080F7CC0
:1042F00007F0010707B1641C4FF6FF7707EA842730
:1043000007800DE000BF0F697C090F7C07F01F07D5
:1043100007B9641E4FF4004747EA8427078000BFAF
:1043200000BF00BF00BF0C78640032F8140000F436
:1043300080448CB100BF0D786D0032F8155048F6FE
:104340008F7705EA070444F4004545F481450F786A
:104350007F0022F8175000BF00BF00BF0C78640038
:1043600032F814404BF68F7504EA050080F4805053
:1043700080F4005040F4004444F080040D786D0057
:1043800022F815400AE100BF0C78640032F81440AE
:1043900048F68F7504EA050040F4004444F4C07404
:1043A0000D786D0022F8154000BF00BF00BF00BFB0
:1043B0001046B2F8505028440D7800F5806707EB9E
:1043C00005140D896D106D00258000BF00BF00BF72
:1043D00000BF1046B2F8505028440D78042707EB70
:1043E000C50500F5806707EB45044D896D106D002C
:1043F000258000BF00BF00BF487800285DD100BF06
:104400000C78640032F8140000F480448CB100BFD2
:104410000D786D0032F8155048F68F7705EA0704DD
:1044200044F4004545F481450F787F0022F8175089
:1044300000BF00BF00BF0C78640032F8140000F029
:1044400040048CB100BF0D786D0032F8155048F66D
:104450008F7705EA070444F4004545F0C0050F785E
:104460007F0022F8175000BF00BF00BF0C78640027
:1044700032F814404BF68F7504EA050080F4805042
:1044800080F4005040F4004444F080040D786D0046
:1044900022F8154000BF00BF0C78640032F81440C9
:1044A00048F6BF7504EA050040F4004444F0800477
:1044B0000D786D0022F8154070E000BF0C786400A4
:1044C00032F8140000F480448CB100BF0D786D0008
:1044D00032F8155048F68F7705EA070444F4004592
:1044E00045F481450F787F0022F8175000BF00BFC8
:1044F00000BF0C78640032F8140000F040048CB166
:1045000000BF0D786D0032F8155048F68F7705EA38
:10451000070444F4004545F0C0050F787F0022F8F9
:10452000175000BF00BFC878012813D000BF0C7817
:10453000640032F8144048F6BF7504EA050080F0C4
:10454000200040F4004444F080040D786D0022F80F
:10455000154011E000BF0C78640032F8144048F6B2
:10456000BF7504EA050040F4004444F080040D786F
:104570006D0022F8154000BF00BF0C78640032F8CF
:1045800014404BF68F7504EA050040F4004444F0F3
:1045900080040D786D0022F8154000BF3046F0BD54
:1045A00010B50446002010BD30B50246087B002837
:1045B0005BD1487860B300BF0B785B0032F8130022
:1045C00000F040038BB100BF0C78640032F8144057
:1045D00048F68F7504EA050343F4004444F0C00430
:1045E0000D786D0022F8154000BF00BF00BF0B78AA
:1045F0005B0032F8133048F6BF7403EA040040F45D
:10460000004343F080030C78640022F8143007E183
:1046100000BF0B785B0032F8130000F480438BB1CD
:1046200000BF0C78640032F8144048F68F7504EA35
:10463000050343F4004444F481440D786D0022F8EE
:10464000154000BF00BF00BF0B785B0032F813308D
:104650004BF68F7403EA040040F4004343F08003F8
:104660000C78640022F81430DAE0487800286BD126
:1046700000BF0B785B0032F8130000F480438BB16D
:1046800000BF0C78640032F8144048F68F7504EAD5
:10469000050343F4004444F481440D786D0022F88E
:1046A000154000BF00BF00BF0B785B0032F813005D
:1046B00000F040038BB100BF0C78640032F8144066
:1046C00048F68F7504EA050343F4004444F0C0043F
:1046D0000D786D0022F8154000BF00BF00BF0B78B9
:1046E0005B0032F8133048F68F7403EA040040F49C
:1046F000004343F0C0030C78640022F8143000BF7C
:1047000000BF0B785B0032F813304BF68F7403EA6E
:10471000040040F4004343F080030C78640022F866
:10472000143000BF00BF0B785B0032F8133048F63E
:10473000BF7403EA040040F4004343F080030C78A4
:10474000640022F814306BE000BF0B785B0032F895
:10475000130000F480438BB100BF0C78640032F882
:10476000144048F68F7504EA050343F4004444F40A
:1047700081440D786D0022F8154000BF00BF00BFD6
:104780000B785B0032F8130000F040038BB100BFE0
:104790000C78640032F8144048F68F7504EA05037B
:1047A00043F4004444F0C0040D786D0022F8154035
:1047B00000BF00BF00BF0B785B0032F8133048F633
:1047C0008F7403EA040040F4004343F481430C78FF
:1047D000640022F8143000BF00BF0B785B0032F891
:1047E000133048F6BF7403EA040040F4004343F07A
:1047F00080030C78640022F8143000BF00BF0B78EF
:104800005B0032F813304BF68F7403EA040040F477
:10481000004343F080030C78640022F8143000BF9A
:10482000002030BD0146002070470146002070473F
:1048300010B50446012024F8400F00202080A080FD
:104840002082403C10BD01464FF43F42B1F8400089
:104850009043A1F8400000207047024600207047B6
:1048600030B50246087B002865D1487888B300BF80
:104870000B785B0032F8130000F040038BB100BFEF
:104880000C78640032F8144048F68F7504EA05038A
:1048900043F4004444F0C0040D786D0022F8154044
:1048A00000BF00BFC878012845D000BF0B785B006F
:1048B00032F8133048F6BF7403EA040080F0200099
:1048C00040F4004343F080030C78640022F8143075
:1048D00031E0FFE700BF0B785B0032F8130000F413
:1048E00080438BB100BF0C78640032F8144048F666
:1048F0008F7504EA050343F4004444F481440D78C1
:104900006D0022F8154000BF00BF00BF0B785B00B0
:1049100032F813304BF68F7403EA040080F48050B1
:1049200080F4005040F4004343F080030C786400AE
:1049300022F8143000BF002030BD10B50246487880
:1049400098B100BF0B785B0032F8133048F6BF74A3
:1049500003EA040080F0100040F4004343F08003B9
:104960000C78640022F8143013E000BF0B785B0071
:1049700032F813304BF68F7403EA040080F4805051
:1049800040F4004343F080030C78640022F81430B4
:1049900000BF002010BD2DE9F04706460C466078A8
:1049A000012876D12169A069884201D9256900E0F2
:1049B000A569207BA0B9ABB2E2883046616900F0FE
:1049C00020FE00BF3046B6F8502010442278022363
:1049D00003EBC20200F5806303EB42010D8081E32B
:1049E000E07802287DD12169206A88427AD900BF07
:1049F0002178490036F8111048F68F7201EA02005A
:104A000040F4004141F4C0712278520026F812109F
:104A100000BF206A401B20622078400036F810005A
:104A200000F0400000287DD000BF3346607888BB8E
:104A300000BF3246B6F850100A4421784FF00609FC
:104A400009EBC10102F5806909EB4101084600BF8D
:104A500075B9B0F8009048F2FF3A09EA0A09A0F8DF
:104A60000090B0F8009049F40049A0F8009021E0CF
:104A70003E2D10D800BF690805F00109B9F1000FFB
:104A800000D0491C4FF6FF7909EA8129A0F800906F
:104A900010E03DE310E000BF690905F01F09B9F11E
:104AA000000F00D1491E4FF4004949EA8129A0F8BE
:104AB000009000BF00BF0FE0607801280CD1B6F86D
:104AC000500003442078062101EBC00003F580610B
:104AD00001EB400CACF8005000BF6789ABB23A461E
:104AE00001E057E12CE13046616900F08AFD606920
:104AF000284460612169206A884203D9206A401BEA
:104B0000206202E0256A0020206200BF6078C0BBFE
:104B100000BF3246B6F850100A442178022303EB56
:104B2000C10100E049E002F5806303EB4101084662
:104B300000BF55B9038848F2FF3C03EA0C03038029
:104B4000038843F40043038019E03E2D0BD800BFD7
:104B5000690805F0010303B1491C4FF6FF7303EA2E
:104B6000812303800BE000BF690905F01F0303B92F
:104B7000491E4FF4004343EA8123038000BF00BF76
:104B800012E0FFE7607801280ED100BF3046B6F88A
:104B9000502010442278022303EBC20200F5806308
:104BA00003EB42010D8000BF00BF2789ABB23A463C
:104BB0003046616900F025FD94E200BF6078B0BB2B
:104BC00000BF3246B6F850100A442178022303EBA6
:104BD000C10102F5806303EB4101084600BF55B9EE
:104BE000038848F2FF3C03EA0C030380038843F484
:104BF0000043038019E03E2D0BD800BF690805F083
:104C0000010303B1491C4FF6FF7303EA81230380BC
:104C10000BE000BF690905F01F0303B9491E4FF4FB
:104C2000004343EA8123038000BF00BF12E0FFE797
:104C3000607801280ED100BF3046B6F850201044ED
:104C40002278022303EBC20200F5806303EB4201EA
:104C50000D8000BF00BF2789ABB23A46304661697C
:104C600000F0CFFC6069284460612169206A8842B5
:104C700003D9206A401B206202E0256A00202062DE
:104C800000BF3346607880BB00BF3246B6F8501094
:104C90000A4421784FF0060909EBC10102F5806949
:104CA00009EB4101084600BF75B9B0F8009048F221
:104CB000FF3A09EA0A09A0F80090B0F8009049F418
:104CC0000049A0F8009020E03E2D0FD800BF6908F1
:104CD00005F00109B9F1000F00D0491C4FF6FF792A
:104CE00009EA8129A0F800900FE010E000BF6909EF
:104CF00005F01F09B9F1000F00D1491E4FF400491A
:104D000049EA8129A0F8009000BF00BF0FE0607859
:104D100001280CD1B6F8500003442078062101EB9D
:104D2000C00003F5806101EB400CACF8005000BFFF
:104D30006789ABB23A463046616900F062FCD1E166
:104D4000256A00BF2178490036F8111048F68F62B5
:104D500001EA020040F4004141F080012278520053
:104D600026F8121000BF00BF3046B6F8502010449D
:104D70002278022303EBC20200F5806303EB4201B9
:104D80000D8000BF2789ABB23A463046616900F01A
:104D900038FCA7E100BF2178490036F8111048F629
:104DA0008F7201EA020040F4004141F4C0712278A0
:104DB000520026F8121000BF206A401B20622078A3
:104DC000400036F8100000F0400000287DD000BF01
:104DD0003346607880BB00BF3246B6F850100A44B4
:104DE00021784FF0060909EBC10102F5806909EB52
:104DF0004101084600BF75B9B0F8009048F2FF3A8B
:104E000009EA0A09A0F80090B0F8009049F40049B6
:104E1000A0F8009020E03E2D0FD800BF690805F0F3
:104E20000109B9F1000F00D0491C4FF6FF7909EADA
:104E30008129A0F800900FE010E000BF690905F09B
:104E40001F09B9F1000F00D1491E4FF4004949EA8A
:104E50008129A0F8009000BF00BF0FE06078012812
:104E60000CD1B6F8500003442078062101EBC000B5
:104E700003F5806101EB400CACF8005000BF67897E
:104E8000ABB23A463046616900F0BBFB606928442A
:104E900060612169206A884203D9206A401B206230
:104EA00002E0256A00202062002D56D000BF607805
:104EB000C0BB00BF3246B6F850100A442178022326
:104EC00003EBC10102F5806300E047E003EB410121
:104ED000084600BF55B9038848F2FF3C03EA0C03BB
:104EE0000380038843F40043038019E03E2D0BD870
:104EF00000BF690805F0010303B1491C4FF6FF73B9
:104F000003EA812303800BE000BF690905F01F035A
:104F100003B9491E4FF4004343EA8123038000BFD5
:104F200000BF12E0FFE7607801280ED100BF3046D5
:104F3000B6F8502010442278022303EBC20200F599
:104F4000806303EB42010D8000BF00BF2789ABB235
:104F50003A463046616900F054FBC3E000BF607818
:104F6000B0BB00BF3246B6F850100A442178022385
:104F700003EBC10102F5806303EB4101084600BF6A
:104F800055B9038848F2FF3C03EA0C030380038809
:104F900043F40043038019E03E2D0BD800BF69089D
:104FA00005F0010303B1491C4FF6FF7303EA8123A7
:104FB00003800BE000BF690905F01F0303B9491E18
:104FC0004FF4004343EA8123038000BF00BF12E097
:104FD000FFE7607801280ED100BF3046B6F85020B8
:104FE00010442278022303EBC20200F5806303EB36
:104FF00042010D8000BF00BF2789ABB23A46304660
:10500000616900F0FEFA6069284460612169206AE4
:10501000884203D9206A401B206202E0256A0020F2
:105020002062A5B300BF3346607888BB00BF32461C
:10503000B6F850100A4421784FF0060909EBC10177
:1050400002F5806909EB4101084600BF75B9B0F867
:10505000009048F2FF3A09EA0A09A0F80090B0F877
:10506000009049F40049A0F8009021E03E2D10D8AE
:1050700000BF690805F00109B9F1000F00D0491C13
:105080004FF6FF7909EA8129A0F8009010E029E0A5
:1050900010E000BF690905F01F09B9F1000F00D148
:1050A000491E4FF4004949EA8129A0F8009000BF49
:1050B00000BF0FE0607801280CD1B6F8500003441F
:1050C0002078062101EBC00003F5806101EB400C64
:1050D000ACF8005000BF6789ABB23A463046616910
:1050E00000F08FFA00BF2178490036F8111048F619
:1050F000BF7201EA020080F0100080F0200040F44E
:10510000004141F080012278520026F8121005E299
:10511000207BA0BB2169A069884204D92569A069C8
:10512000401BA06102E0A5690020A06100BF3246DB
:10513000B6F850100A442178062303EBC10102F5AA
:10514000806303EB4101084600BF55B9038848F26C
:10515000FF3C03EA0C030380038843F4004303800D
:105160001AE03E2D0CD800BF690805F0010303B119
:10517000491C4FF6FF7303EA812303800CE00DE026
:1051800000BF690905F01F0303B9491E4FF400432E
:1051900043EA8123038000BF00BFA9E1E078022831
:1051A0007DD100BF00BF6078E0BB00BF3246B6F8DB
:1051B00050100A442178022303EBC10102F58063F9
:1051C00003EB4101084600BF236953B9038848F245
:1051D000FF3C03EA0C030380038843F4004303808D
:1051E0001EE023693E2B0DD800BF23695908237C9C
:1051F00003F0010303B1491C4FF6FF7303EA812357
:1052000003800DE000BF23695909237C03F01F03CD
:1052100003B9491E4FF4004343EA8123038000BFD2
:1052200000BF13E0FFE7607801280FD100BF3046D0
:10523000B6F8502010442278022303EBC20200F596
:10524000806303EB4201228A0A8000BF00BF00BFD7
:1052500033466078E8BB00BF3246B6F850100A44C7
:1052600021784FF0060909EBC10102F5806909EBCD
:105270004101084600BFD4F81090B9F1000F0FD1DA
:10528000B0F8009048F2FF3A09EA0A09A0F8009045
:10529000B0F8009049F40049A0F800902EE06BE0CF
:1052A000D4F81090B9F13E0F14D800BFD4F8109084
:1052B0004FEA590194F8109009F00109B9F1000F73
:1052C00000D0491C4FF6FF7909EA8129A0F8009027
:1052D00014E015E000BFD4F810904FEA591194F88B
:1052E000109009F01F09B9F1000F00D1491E4FF4C9
:1052F000004949EA8129A0F8009000BF00BF10E0F2
:10530000607801280DD1B6F85000034420780621BA
:1053100001EBC00003F5806101EB400C208AACF882
:10532000000000BF00BFE069002824D020784000C2
:1053300036F8108008F4804010B108F0400038B909
:1053400008F48040002816D108F04000002812D14F
:1053500000BF00BF2178490036F8111048F68F725F
:1053600001EA020040F4004141F0C00122785200FD
:1053700026F8121000BFBBE0E07801287CD121693B
:10538000A069884204D92569A069401BA06102E098
:10539000A5690020A06100BF00BF6078B0BB00BF5E
:1053A0003246B6F850100A442178022303EBC101BB
:1053B00002F5806303EB4101084600BF55B903883D
:1053C00048F2FF3C03EA0C030380038843F40043E4
:1053D000038019E03E2D0BD800BF690805F00103DA
:1053E00003B1491C4FF6FF7303EA812303800BE0EE
:1053F00000BF690905F01F0303B9491E4FF40043BC
:1054000043EA8123038000BF00BF12E0FFE760781A
:1054100001280ED100BF3046B6F850201044227843
:10542000022303EBC20200F5806303EB42010D800F
:1054300000BF00BF00BF3346607890BB00BF32465C
:10544000B6F850100A4421784FF0060909EBC10163
:1054500002F5806909EB4101084600BF85B9B0F843
:10546000009048F2FF3A09EA0A09A0F80090B0F863
:10547000009049F4004900E037E0A0F8009020E0F7
:105480003E2D0FD800BF690805F00109B9F1000FE2
:1054900000D0491C4FF6FF7909EA8129A0F8009055
:1054A0000FE010E000BF690905F01F09B9F1000F16
:1054B00000D1491E4FF4004949EA8129A0F8009023
:1054C00000BF00BF0FE0607801280CD1B6F8500093
:1054D00003442078062101EBC00003F5806101EB55
:1054E000400CACF8005000BF02E00120BDE8F0879E
:1054F00000BF2178490036F811104BF68F7201EA8F
:10550000020080F4805080F4005040F4004141F0EB
:1055100080012278520026F8121000BF0020E5E733
:1055200001460020A1F844004FF43F42A1F840207A
:105530007047000010B51648FBF7CEFF15480078FD
:10554000062824DB1448007802281BD11248C078B2
:105550000A2811D1104800F00BF938B900F09CF876
:105560004FF47A710C48FAF7C6FE10E04FF47A71E6
:105570000948FAF7C0FE0AE04FF47A710648FAF7D4
:10558000BAFE04E04FF47A710348FAF7B4FE10BD96
:105590003816002004000020780500200146B1F8EC
:1055A000440070472DE9F04304460E4615464FEA85
:1055B000530CA046304608F5806909EB4502674662
:1055C0000AE01188921C0170401C4FEA112980F8F2
:1055D0000090401C921C7F1E002FF2D103F00109A5
:1055E000B9F1000F01D011880170BDE8F0830246C7
:1055F00000207047024611B98020A2F84C0000201C
:1056000070472DE9F04704460D461E4606F1010A93
:105610004FEA5A08A146284609F5806A0AEB420378
:1056200047460BE090F800C0401C90F800A04CEA00
:105630000A2119809B1C9B1C401C7F1E002FF1D14E
:10564000BDE8F08700BFFEE702480068C0F3022013
:10565000704700000CED00E010B5002804DB0A07DD
:10566000130E054A135406E00A07140E034A00F00D
:105670000F031B1FD45410BD00E400E018ED00E040
:10568000FBF788F9FDF715FAFCF744FFFCF7B8FFC4
:10569000FCF7D2FF00BFFEE708B5294840788DF837
:1056A0000100274880788DF800002548007910B166
:1056B000012835D10AE0BDF800102148FAF7FAFEBA
:1056C0004FF400511F48FBF743F934E01C48407980
:1056D00060B900224FF400711B48FBF743F9002228
:1056E0004FF400511748FBF73DF918E01448407992
:1056F00002280AD1012201021348FBF733F90122E3
:1057000051031048FBF72EF909E00E220FA10C48B7
:10571000FAF7BFFDBDF800100948FAF7CBFE0AE022
:105720000A220EA11048FAF7B4FDBDF80010044893
:10573000FAF7C0FE00BF00BF00200C49087008BD8A
:1057400078050020001001400008014057726F6E7C
:105750006720617267756D656E7400004E6F206D15
:1057600065737361676500009001002004000020EC
:1057700008B50146002248788DF8010088788DF838
:105780000000002002E00B5C5A40401CBDF80030D5
:105790008342F8DC104608BD000000000000000055
:1057A00001020304060708090000000001020304C7
:1057B000D0570008000000209001000028010008D8
:1057C000945800089001002018200000840100086F
:1057D0000110321042011324F41309331B08510441
:1057E0001A61041A8D041ACD0413D5321B08190846
:1057F000131201140202021640830440571D0201D5
:10580000020335071A040309041A031351041B0881
:105810004B041A07041A750441130A0632022A407F
:105820007413652F1408A52E4C0887301C1AF30C2E
:1058300013F52D1B087108C11A45281A35041A558D
:10584000041A25041C09024383111DC0320904BD3A
:105850001A020B1305241610010524011009010476
:10586000240202052406170107058203081C1009FB
:1058700004B9320A1D070501027B2C0705810711B7
:105880000937442A40072A8107112B0907440A3B9C
:0458900004440000CC
:04000005080000ED02
:00000001FF
